{
  "_format": "hh-sol-artifact-1",
  "contractName": "MetaTransaction",
  "sourceName": "contracts/MetaTransaction.sol",
  "abi": [
    {
      "anonymous": false,
      "inputs": [
        {
          "indexed": true,
          "internalType": "address",
          "name": "owner",
          "type": "address"
        },
        {
          "indexed": true,
          "internalType": "address",
          "name": "spender",
          "type": "address"
        },
        {
          "indexed": false,
          "internalType": "uint256",
          "name": "value",
          "type": "uint256"
        }
      ],
      "name": "Approval",
      "type": "event"
    },
    {
      "anonymous": false,
      "inputs": [
        {
          "indexed": true,
          "internalType": "bytes32",
          "name": "role",
          "type": "bytes32"
        },
        {
          "indexed": true,
          "internalType": "bytes32",
          "name": "previousAdminRole",
          "type": "bytes32"
        },
        {
          "indexed": true,
          "internalType": "bytes32",
          "name": "newAdminRole",
          "type": "bytes32"
        }
      ],
      "name": "RoleAdminChanged",
      "type": "event"
    },
    {
      "anonymous": false,
      "inputs": [
        {
          "indexed": true,
          "internalType": "bytes32",
          "name": "role",
          "type": "bytes32"
        },
        {
          "indexed": true,
          "internalType": "address",
          "name": "account",
          "type": "address"
        },
        {
          "indexed": true,
          "internalType": "address",
          "name": "sender",
          "type": "address"
        }
      ],
      "name": "RoleGranted",
      "type": "event"
    },
    {
      "anonymous": false,
      "inputs": [
        {
          "indexed": true,
          "internalType": "bytes32",
          "name": "role",
          "type": "bytes32"
        },
        {
          "indexed": true,
          "internalType": "address",
          "name": "account",
          "type": "address"
        },
        {
          "indexed": true,
          "internalType": "address",
          "name": "sender",
          "type": "address"
        }
      ],
      "name": "RoleRevoked",
      "type": "event"
    },
    {
      "anonymous": false,
      "inputs": [
        {
          "indexed": true,
          "internalType": "address",
          "name": "from",
          "type": "address"
        },
        {
          "indexed": true,
          "internalType": "address",
          "name": "to",
          "type": "address"
        },
        {
          "indexed": false,
          "internalType": "uint256",
          "name": "value",
          "type": "uint256"
        }
      ],
      "name": "Transfer",
      "type": "event"
    },
    {
      "inputs": [],
      "name": "DEFAULT_ADMIN_ROLE",
      "outputs": [
        {
          "internalType": "bytes32",
          "name": "",
          "type": "bytes32"
        }
      ],
      "stateMutability": "view",
      "type": "function"
    },
    {
      "inputs": [],
      "name": "ISSUER_ROLE",
      "outputs": [
        {
          "internalType": "bytes32",
          "name": "",
          "type": "bytes32"
        }
      ],
      "stateMutability": "view",
      "type": "function"
    },
    {
      "inputs": [
        {
          "internalType": "address",
          "name": "owner",
          "type": "address"
        },
        {
          "internalType": "address",
          "name": "spender",
          "type": "address"
        }
      ],
      "name": "allowance",
      "outputs": [
        {
          "internalType": "uint256",
          "name": "",
          "type": "uint256"
        }
      ],
      "stateMutability": "view",
      "type": "function"
    },
    {
      "inputs": [
        {
          "internalType": "address",
          "name": "spender",
          "type": "address"
        },
        {
          "internalType": "uint256",
          "name": "amount",
          "type": "uint256"
        }
      ],
      "name": "approve",
      "outputs": [
        {
          "internalType": "bool",
          "name": "",
          "type": "bool"
        }
      ],
      "stateMutability": "nonpayable",
      "type": "function"
    },
    {
      "inputs": [
        {
          "internalType": "address",
          "name": "account",
          "type": "address"
        }
      ],
      "name": "balanceOf",
      "outputs": [
        {
          "internalType": "uint256",
          "name": "",
          "type": "uint256"
        }
      ],
      "stateMutability": "view",
      "type": "function"
    },
    {
      "inputs": [
        {
          "internalType": "address",
          "name": "account",
          "type": "address"
        },
        {
          "internalType": "uint256",
          "name": "amount",
          "type": "uint256"
        }
      ],
      "name": "burn",
      "outputs": [],
      "stateMutability": "nonpayable",
      "type": "function"
    },
    {
      "inputs": [],
      "name": "currentContextAddress",
      "outputs": [
        {
          "internalType": "address",
          "name": "",
          "type": "address"
        }
      ],
      "stateMutability": "view",
      "type": "function"
    },
    {
      "inputs": [],
      "name": "decimals",
      "outputs": [
        {
          "internalType": "uint8",
          "name": "",
          "type": "uint8"
        }
      ],
      "stateMutability": "view",
      "type": "function"
    },
    {
      "inputs": [
        {
          "internalType": "address",
          "name": "spender",
          "type": "address"
        },
        {
          "internalType": "uint256",
          "name": "subtractedValue",
          "type": "uint256"
        }
      ],
      "name": "decreaseAllowance",
      "outputs": [
        {
          "internalType": "bool",
          "name": "",
          "type": "bool"
        }
      ],
      "stateMutability": "nonpayable",
      "type": "function"
    },
    {
      "inputs": [
        {
          "internalType": "bytes32",
          "name": "role",
          "type": "bytes32"
        }
      ],
      "name": "getRoleAdmin",
      "outputs": [
        {
          "internalType": "bytes32",
          "name": "",
          "type": "bytes32"
        }
      ],
      "stateMutability": "view",
      "type": "function"
    },
    {
      "inputs": [
        {
          "internalType": "bytes32",
          "name": "role",
          "type": "bytes32"
        },
        {
          "internalType": "uint256",
          "name": "index",
          "type": "uint256"
        }
      ],
      "name": "getRoleMember",
      "outputs": [
        {
          "internalType": "address",
          "name": "",
          "type": "address"
        }
      ],
      "stateMutability": "view",
      "type": "function"
    },
    {
      "inputs": [
        {
          "internalType": "bytes32",
          "name": "role",
          "type": "bytes32"
        }
      ],
      "name": "getRoleMemberCount",
      "outputs": [
        {
          "internalType": "uint256",
          "name": "",
          "type": "uint256"
        }
      ],
      "stateMutability": "view",
      "type": "function"
    },
    {
      "inputs": [
        {
          "internalType": "bytes32",
          "name": "role",
          "type": "bytes32"
        },
        {
          "internalType": "address",
          "name": "account",
          "type": "address"
        }
      ],
      "name": "grantRole",
      "outputs": [],
      "stateMutability": "nonpayable",
      "type": "function"
    },
    {
      "inputs": [
        {
          "internalType": "bytes32",
          "name": "role",
          "type": "bytes32"
        },
        {
          "internalType": "address",
          "name": "account",
          "type": "address"
        }
      ],
      "name": "hasRole",
      "outputs": [
        {
          "internalType": "bool",
          "name": "",
          "type": "bool"
        }
      ],
      "stateMutability": "view",
      "type": "function"
    },
    {
      "inputs": [
        {
          "internalType": "address",
          "name": "spender",
          "type": "address"
        },
        {
          "internalType": "uint256",
          "name": "addedValue",
          "type": "uint256"
        }
      ],
      "name": "increaseAllowance",
      "outputs": [
        {
          "internalType": "bool",
          "name": "",
          "type": "bool"
        }
      ],
      "stateMutability": "nonpayable",
      "type": "function"
    },
    {
      "inputs": [
        {
          "internalType": "address",
          "name": "signer",
          "type": "address"
        },
        {
          "components": [
            {
              "internalType": "address payable",
              "name": "to",
              "type": "address"
            },
            {
              "internalType": "uint256",
              "name": "amount",
              "type": "uint256"
            },
            {
              "internalType": "uint256",
              "name": "nonce",
              "type": "uint256"
            }
          ],
          "internalType": "struct SignatureValidator.Transaction",
          "name": "transaction",
          "type": "tuple"
        },
        {
          "internalType": "uint8",
          "name": "v",
          "type": "uint8"
        },
        {
          "internalType": "bytes32",
          "name": "r",
          "type": "bytes32"
        },
        {
          "internalType": "bytes32",
          "name": "s",
          "type": "bytes32"
        }
      ],
      "name": "isValidTransaction",
      "outputs": [
        {
          "internalType": "bool",
          "name": "",
          "type": "bool"
        }
      ],
      "stateMutability": "view",
      "type": "function"
    },
    {
      "inputs": [],
      "name": "issuer",
      "outputs": [
        {
          "internalType": "address",
          "name": "",
          "type": "address"
        }
      ],
      "stateMutability": "view",
      "type": "function"
    },
    {
      "inputs": [
        {
          "internalType": "address",
          "name": "signer",
          "type": "address"
        },
        {
          "components": [
            {
              "internalType": "address payable",
              "name": "to",
              "type": "address"
            },
            {
              "internalType": "uint256",
              "name": "amount",
              "type": "uint256"
            },
            {
              "internalType": "uint256",
              "name": "nonce",
              "type": "uint256"
            }
          ],
          "internalType": "struct SignatureValidator.Transaction",
          "name": "transaction",
          "type": "tuple"
        },
        {
          "internalType": "uint8",
          "name": "v",
          "type": "uint8"
        },
        {
          "internalType": "bytes32",
          "name": "r",
          "type": "bytes32"
        },
        {
          "internalType": "bytes32",
          "name": "s",
          "type": "bytes32"
        }
      ],
      "name": "metaTransfer",
      "outputs": [],
      "stateMutability": "payable",
      "type": "function"
    },
    {
      "inputs": [
        {
          "internalType": "address",
          "name": "account",
          "type": "address"
        },
        {
          "internalType": "uint256",
          "name": "amount",
          "type": "uint256"
        }
      ],
      "name": "mint",
      "outputs": [],
      "stateMutability": "nonpayable",
      "type": "function"
    },
    {
      "inputs": [],
      "name": "name",
      "outputs": [
        {
          "internalType": "string",
          "name": "",
          "type": "string"
        }
      ],
      "stateMutability": "view",
      "type": "function"
    },
    {
      "inputs": [
        {
          "internalType": "bytes32",
          "name": "role",
          "type": "bytes32"
        },
        {
          "internalType": "address",
          "name": "account",
          "type": "address"
        }
      ],
      "name": "renounceRole",
      "outputs": [],
      "stateMutability": "nonpayable",
      "type": "function"
    },
    {
      "inputs": [
        {
          "internalType": "bytes32",
          "name": "role",
          "type": "bytes32"
        },
        {
          "internalType": "address",
          "name": "account",
          "type": "address"
        }
      ],
      "name": "revokeRole",
      "outputs": [],
      "stateMutability": "nonpayable",
      "type": "function"
    },
    {
      "inputs": [],
      "name": "symbol",
      "outputs": [
        {
          "internalType": "string",
          "name": "",
          "type": "string"
        }
      ],
      "stateMutability": "view",
      "type": "function"
    },
    {
      "inputs": [],
      "name": "totalSupply",
      "outputs": [
        {
          "internalType": "uint256",
          "name": "",
          "type": "uint256"
        }
      ],
      "stateMutability": "view",
      "type": "function"
    },
    {
      "inputs": [
        {
          "internalType": "address",
          "name": "recipient",
          "type": "address"
        },
        {
          "internalType": "uint256",
          "name": "amount",
          "type": "uint256"
        }
      ],
      "name": "transfer",
      "outputs": [
        {
          "internalType": "bool",
          "name": "",
          "type": "bool"
        }
      ],
      "stateMutability": "nonpayable",
      "type": "function"
    },
    {
      "inputs": [
        {
          "internalType": "address",
          "name": "sender",
          "type": "address"
        },
        {
          "internalType": "address",
          "name": "recipient",
          "type": "address"
        },
        {
          "internalType": "uint256",
          "name": "amount",
          "type": "uint256"
        }
      ],
      "name": "transferFrom",
      "outputs": [
        {
          "internalType": "bool",
          "name": "",
          "type": "bool"
        }
      ],
      "stateMutability": "nonpayable",
      "type": "function"
    }
  ],
  "bytecode": "0x60806040527fd87cd6ef79d4e2b95e15ce8abf732db51ec771f1ca2edccf22a46c729ac564727f635b2fe2379e560fef14fdd5fcfe9635da2fb13b525d061f5507efa3de8f45777f06c015bd22b4c69690933c1058878ebdfef31f9aaae40bbe86d8a09fe1b2972c6004307f76e22a8ee58573472b9d7b73c41ee29160bc2759195434c1bc1201ae4769afd7604051602001620000a296959493929190620007a5565b60405160208183030381529060405280519060200120600055348015620000c857600080fd5b50610bb860006040518060400160405280600e81526020017f4d79417765736f6d65546f6b656e0000000000000000000000000000000000008152506040518060400160405280600381526020017f4d4154000000000000000000000000000000000000000000000000000000000081525081600490805190602001906200015292919062000637565b5080600590805190602001906200016b92919062000637565b506012600660006101000a81548160ff021916908360ff160217905550505033600860006101000a81548173ffffffffffffffffffffffffffffffffffffffff021916908373ffffffffffffffffffffffffffffffffffffffff160217905550620001dc816200027460201b60201c565b620002307f114e74f6ea3bd819998f78687bfcb11b140da08e9b7d222fa9c1f1ba1f2aa122600860009054906101000a900473ffffffffffffffffffffffffffffffffffffffff166200029260201b60201c565b6200026c600860009054906101000a900473ffffffffffffffffffffffffffffffffffffffff168260ff16600a0a8402620002a860201b60201c565b5050620008e0565b80600660006101000a81548160ff021916908360ff16021790555050565b620002a482826200045960201b60201c565b5050565b600073ffffffffffffffffffffffffffffffffffffffff168273ffffffffffffffffffffffffffffffffffffffff1614156200031b576040517f08c379a0000000000000000000000000000000000000000000000000000000008152600401620003129062000834565b60405180910390fd5b6200032f60008383620004fd60201b60201c565b6200034b816003546200050260201b6200113d1790919060201c565b600381905550620003aa81600160008573ffffffffffffffffffffffffffffffffffffffff1673ffffffffffffffffffffffffffffffffffffffff168152602001908152602001600020546200050260201b6200113d1790919060201c565b600160008473ffffffffffffffffffffffffffffffffffffffff1673ffffffffffffffffffffffffffffffffffffffff168152602001908152602001600020819055508173ffffffffffffffffffffffffffffffffffffffff16600073ffffffffffffffffffffffffffffffffffffffff167fddf252ad1be2c89b69c2b068fc378daa952ba7f163c4a11628f55a4df523b3ef836040516200044d919062000856565b60405180910390a35050565b6200048881600760008581526020019081526020016000206000016200055a60201b620011921790919060201c565b15620004f9576200049e6200059260201b60201c565b73ffffffffffffffffffffffffffffffffffffffff168173ffffffffffffffffffffffffffffffffffffffff16837f2f8788117e7eff1d82e926ec794901d17c78024a50270940304540a733656f0d60405160405180910390a45b5050565b505050565b60008082840190508381101562000550576040517f08c379a0000000000000000000000000000000000000000000000000000000008152600401620005479062000812565b60405180910390fd5b8091505092915050565b60006200058a836000018373ffffffffffffffffffffffffffffffffffffffff1660001b6200059a60201b60201c565b905092915050565b600033905090565b6000620005ae83836200061460201b60201c565b620006095782600001829080600181540180825580915050600190039060005260206000200160009091909190915055826000018054905083600101600084815260200190815260200160002081905550600190506200060e565b600090505b92915050565b600080836001016000848152602001908152602001600020541415905092915050565b828054600181600116156101000203166002900490600052602060002090601f016020900481019282601f106200067a57805160ff1916838001178555620006ab565b82800160010185558215620006ab579182015b82811115620006aa5782518255916020019190600101906200068d565b5b509050620006ba9190620006be565b5090565b5b80821115620006d9576000816000905550600101620006bf565b5090565b620006e88162000884565b82525050565b620006f98162000898565b82525050565b6200070a81620008cc565b82525050565b60006200071f601b8362000873565b91507f536166654d6174683a206164646974696f6e206f766572666c6f7700000000006000830152602082019050919050565b600062000761601f8362000873565b91507f45524332303a206d696e7420746f20746865207a65726f2061646472657373006000830152602082019050919050565b6200079f81620008c2565b82525050565b600060c082019050620007bc6000830189620006ee565b620007cb6020830188620006ee565b620007da6040830187620006ee565b620007e9606083018662000794565b620007f86080830185620006dd565b6200080760a0830184620006ff565b979650505050505050565b600060208201905081810360008301526200082d8162000710565b9050919050565b600060208201905081810360008301526200084f8162000752565b9050919050565b60006020820190506200086d600083018462000794565b92915050565b600082825260208201905092915050565b60006200089182620008a2565b9050919050565b6000819050919050565b600073ffffffffffffffffffffffffffffffffffffffff82169050919050565b6000819050919050565b6000620008d982620008c2565b9050919050565b612eb480620008f06000396000f3fe6080604052600436106101815760003560e01c806370a08231116100d1578063a217fddf1161008a578063ca15c87311610064578063ca15c873146105d5578063d547741f14610612578063dd62ed3e1461063b578063eea086ba1461067857610181565b8063a217fddf14610530578063a457c2d71461055b578063a9059cbb1461059857610181565b806370a08231146103fa57806382aefa24146104375780639010d07c1461046257806391d148541461049f57806395d89b41146104dc5780639dc29fac1461050757610181565b8063248a9ca31161013e57806336568abe1161011857806336568abe1461034f578063395093511461037857806340c10f19146103b557806368baf893146103de57610181565b8063248a9ca3146102be5780632f2ff15d146102fb578063313ce5671461032457610181565b806306fdde0314610186578063095ea7b3146101b157806318160ddd146101ee5780631d14384814610219578063214ad4fe1461024457806323b872dd14610281575b600080fd5b34801561019257600080fd5b5061019b6106a3565b6040516101a89190612a07565b60405180910390f35b3480156101bd57600080fd5b506101d860048036038101906101d391906121f9565b610745565b6040516101e59190612947565b60405180910390f35b3480156101fa57600080fd5b50610203610763565b6040516102109190612c19565b60405180910390f35b34801561022557600080fd5b5061022e61076d565b60405161023b9190612903565b60405180910390f35b34801561025057600080fd5b5061026b60048036038101906102669190612182565b610793565b6040516102789190612947565b60405180910390f35b34801561028d57600080fd5b506102a860048036038101906102a39190612133565b610825565b6040516102b59190612947565b60405180910390f35b3480156102ca57600080fd5b506102e560048036038101906102e09190612235565b6108fe565b6040516102f29190612962565b60405180910390f35b34801561030757600080fd5b50610322600480360381019061031d919061225e565b61091e565b005b34801561033057600080fd5b50610339610992565b6040516103469190612c34565b60405180910390f35b34801561035b57600080fd5b506103766004803603810190610371919061225e565b6109a9565b005b34801561038457600080fd5b5061039f600480360381019061039a91906121f9565b610a2c565b6040516103ac9190612947565b60405180910390f35b3480156103c157600080fd5b506103dc60048036038101906103d791906121f9565b610adf565b005b6103f860048036038101906103f39190612182565b610b56565b005b34801561040657600080fd5b50610421600480360381019061041c91906120a5565b610d19565b60405161042e9190612c19565b60405180910390f35b34801561044357600080fd5b5061044c610d62565b6040516104599190612962565b60405180910390f35b34801561046e57600080fd5b506104896004803603810190610484919061229a565b610d86565b6040516104969190612903565b60405180910390f35b3480156104ab57600080fd5b506104c660048036038101906104c1919061225e565b610db8565b6040516104d39190612947565b60405180910390f35b3480156104e857600080fd5b506104f1610dea565b6040516104fe9190612a07565b60405180910390f35b34801561051357600080fd5b5061052e600480360381019061052991906121f9565b610e8c565b005b34801561053c57600080fd5b50610545610f03565b6040516105529190612962565b60405180910390f35b34801561056757600080fd5b50610582600480360381019061057d91906121f9565b610f0a565b60405161058f9190612947565b60405180910390f35b3480156105a457600080fd5b506105bf60048036038101906105ba91906121f9565b610fd7565b6040516105cc9190612947565b60405180910390f35b3480156105e157600080fd5b506105fc60048036038101906105f79190612235565b610ff5565b6040516106099190612c19565b60405180910390f35b34801561061e57600080fd5b506106396004803603810190610634919061225e565b61101c565b005b34801561064757600080fd5b50610662600480360381019061065d91906120f7565b611090565b60405161066f9190612c19565b60405180910390f35b34801561068457600080fd5b5061068d611117565b60405161069a9190612903565b60405180910390f35b606060048054600181600116156101000203166002900480601f01602080910402602001604051908101604052809291908181526020018280546001816001161561010002031660029004801561073b5780601f106107105761010080835404028352916020019161073b565b820191906000526020600020905b81548152906001019060200180831161071e57829003601f168201915b5050505050905090565b60006107596107526111c2565b84846111ca565b6001905092915050565b6000600354905090565b600860009054906101000a900473ffffffffffffffffffffffffffffffffffffffff1681565b60008573ffffffffffffffffffffffffffffffffffffffff1660016107b787611395565b868686604051600081526020016040526040516107d794939291906129c2565b6020604051602081039080840390855afa1580156107f9573d6000803e3d6000fd5b5050506020604051035173ffffffffffffffffffffffffffffffffffffffff1614905095945050505050565b600061083284848461143b565b6108f38461083e6111c2565b6108ee85604051806060016040528060288152602001612e3260289139600260008b73ffffffffffffffffffffffffffffffffffffffff1673ffffffffffffffffffffffffffffffffffffffff16815260200190815260200160002060006108a46111c2565b73ffffffffffffffffffffffffffffffffffffffff1673ffffffffffffffffffffffffffffffffffffffff168152602001908152602001600020546116d49092919063ffffffff16565b6111ca565b600190509392505050565b600060076000838152602001908152602001600020600201549050919050565b61094560076000848152602001908152602001600020600201546109406111c2565b610db8565b610984576040517f08c379a000000000000000000000000000000000000000000000000000000000815260040161097b90612a99565b60405180910390fd5b61098e8282611729565b5050565b6000600660009054906101000a900460ff16905090565b6109b16111c2565b73ffffffffffffffffffffffffffffffffffffffff168173ffffffffffffffffffffffffffffffffffffffff1614610a1e576040517f08c379a0000000000000000000000000000000000000000000000000000000008152600401610a1590612bd9565b60405180910390fd5b610a2882826117bd565b5050565b6000610ad5610a396111c2565b84610ad08560026000610a4a6111c2565b73ffffffffffffffffffffffffffffffffffffffff1673ffffffffffffffffffffffffffffffffffffffff16815260200190815260200160002060008973ffffffffffffffffffffffffffffffffffffffff1673ffffffffffffffffffffffffffffffffffffffff1681526020019081526020016000205461113d90919063ffffffff16565b6111ca565b6001905092915050565b610b097f114e74f6ea3bd819998f78687bfcb11b140da08e9b7d222fa9c1f1ba1f2aa12233610db8565b610b48576040517f08c379a0000000000000000000000000000000000000000000000000000000008152600401610b3f90612b59565b60405180910390fd5b610b528282611851565b5050565b60011515610b678686868686610793565b151514610ba9576040517f08c379a0000000000000000000000000000000000000000000000000000000008152600401610ba090612b39565b60405180910390fd5b610bb385866119e7565b600060603073ffffffffffffffffffffffffffffffffffffffff16866000016020810190610be191906120ce565b8760200135604051602401610bf792919061291e565b6040516020818303038152906040527fa9059cbb000000000000000000000000000000000000000000000000000000007bffffffffffffffffffffffffffffffffffffffffffffffffffffffff19166020820180517bffffffffffffffffffffffffffffffffffffffffffffffffffffffff8381831617835250505050604051610c8191906128ec565b600060405180830381855af49150503d8060008114610cbc576040519150601f19603f3d011682016040523d82523d6000602084013e610cc1565b606091505b5091509150610d056040518060400160405280601981526020017f49732064656c656761746563616c6c20737563636573733f200000000000000081525083611a60565b610d108760006119e7565b50505050505050565b6000600160008373ffffffffffffffffffffffffffffffffffffffff1673ffffffffffffffffffffffffffffffffffffffff168152602001908152602001600020549050919050565b7f114e74f6ea3bd819998f78687bfcb11b140da08e9b7d222fa9c1f1ba1f2aa12281565b6000610db08260076000868152602001908152602001600020600001611afc90919063ffffffff16565b905092915050565b6000610de28260076000868152602001908152602001600020600001611b1690919063ffffffff16565b905092915050565b606060058054600181600116156101000203166002900480601f016020809104026020016040519081016040528092919081815260200182805460018160011615610100020316600290048015610e825780601f10610e5757610100808354040283529160200191610e82565b820191906000526020600020905b815481529060010190602001808311610e6557829003601f168201915b5050505050905090565b610eb67f114e74f6ea3bd819998f78687bfcb11b140da08e9b7d222fa9c1f1ba1f2aa12233610db8565b610ef5576040517f08c379a0000000000000000000000000000000000000000000000000000000008152600401610eec90612b59565b60405180910390fd5b610eff8282611b46565b5050565b6000801b81565b6000610fcd610f176111c2565b84610fc885604051806060016040528060258152602001612e5a6025913960026000610f416111c2565b73ffffffffffffffffffffffffffffffffffffffff1673ffffffffffffffffffffffffffffffffffffffff16815260200190815260200160002060008a73ffffffffffffffffffffffffffffffffffffffff1673ffffffffffffffffffffffffffffffffffffffff168152602001908152602001600020546116d49092919063ffffffff16565b6111ca565b6001905092915050565b6000610feb610fe4611cf6565b848461143b565b6001905092915050565b600061101560076000848152602001908152602001600020600001611d65565b9050919050565b611043600760008481526020019081526020016000206002015461103e6111c2565b610db8565b611082576040517f08c379a000000000000000000000000000000000000000000000000000000000815260040161107990612b19565b60405180910390fd5b61108c82826117bd565b5050565b6000600260008473ffffffffffffffffffffffffffffffffffffffff1673ffffffffffffffffffffffffffffffffffffffff16815260200190815260200160002060008373ffffffffffffffffffffffffffffffffffffffff1673ffffffffffffffffffffffffffffffffffffffff16815260200190815260200160002054905092915050565b600960009054906101000a900473ffffffffffffffffffffffffffffffffffffffff1681565b600080828401905083811015611188576040517f08c379a000000000000000000000000000000000000000000000000000000000815260040161117f90612ad9565b60405180910390fd5b8091505092915050565b60006111ba836000018373ffffffffffffffffffffffffffffffffffffffff1660001b611d7a565b905092915050565b600033905090565b600073ffffffffffffffffffffffffffffffffffffffff168373ffffffffffffffffffffffffffffffffffffffff16141561123a576040517f08c379a000000000000000000000000000000000000000000000000000000000815260040161123190612bb9565b60405180910390fd5b600073ffffffffffffffffffffffffffffffffffffffff168273ffffffffffffffffffffffffffffffffffffffff1614156112aa576040517f08c379a00000000000000000000000000000000000000000000000000000000081526004016112a190612ab9565b60405180910390fd5b80600260008573ffffffffffffffffffffffffffffffffffffffff1673ffffffffffffffffffffffffffffffffffffffff16815260200190815260200160002060008473ffffffffffffffffffffffffffffffffffffffff1673ffffffffffffffffffffffffffffffffffffffff168152602001908152602001600020819055508173ffffffffffffffffffffffffffffffffffffffff168373ffffffffffffffffffffffffffffffffffffffff167f8c5be1e5ebec7d5bd14f71427d1e84f3dd0314c0f7b2291e5b200ac8c7c3b925836040516113889190612c19565b60405180910390a3505050565b6000601960f81b600160f81b6000547f67121f3f5af9e0be370d71fed1829be5ab4792b1944ba5b83393cc61d57e4b0f8560000160208101906113d891906120ce565b866020013587604001356040516020016113f5949392919061297d565b6040516020818303038152906040528051906020012060405160200161141e949392919061289e565b604051602081830303815290604052805190602001209050919050565b600073ffffffffffffffffffffffffffffffffffffffff168373ffffffffffffffffffffffffffffffffffffffff1614156114ab576040517f08c379a00000000000000000000000000000000000000000000000000000000081526004016114a290612b99565b60405180910390fd5b600073ffffffffffffffffffffffffffffffffffffffff168273ffffffffffffffffffffffffffffffffffffffff16141561151b576040517f08c379a000000000000000000000000000000000000000000000000000000000815260040161151290612a79565b60405180910390fd5b611526838383611dea565b61159281604051806060016040528060268152602001612e0c60269139600160008773ffffffffffffffffffffffffffffffffffffffff1673ffffffffffffffffffffffffffffffffffffffff168152602001908152602001600020546116d49092919063ffffffff16565b600160008573ffffffffffffffffffffffffffffffffffffffff1673ffffffffffffffffffffffffffffffffffffffff1681526020019081526020016000208190555061162781600160008573ffffffffffffffffffffffffffffffffffffffff1673ffffffffffffffffffffffffffffffffffffffff1681526020019081526020016000205461113d90919063ffffffff16565b600160008473ffffffffffffffffffffffffffffffffffffffff1673ffffffffffffffffffffffffffffffffffffffff168152602001908152602001600020819055508173ffffffffffffffffffffffffffffffffffffffff168373ffffffffffffffffffffffffffffffffffffffff167fddf252ad1be2c89b69c2b068fc378daa952ba7f163c4a11628f55a4df523b3ef836040516116c79190612c19565b60405180910390a3505050565b600083831115829061171c576040517f08c379a00000000000000000000000000000000000000000000000000000000081526004016117139190612a07565b60405180910390fd5b5082840390509392505050565b611751816007600085815260200190815260200160002060000161119290919063ffffffff16565b156117b95761175e6111c2565b73ffffffffffffffffffffffffffffffffffffffff168173ffffffffffffffffffffffffffffffffffffffff16837f2f8788117e7eff1d82e926ec794901d17c78024a50270940304540a733656f0d60405160405180910390a45b5050565b6117e58160076000858152602001908152602001600020600001611def90919063ffffffff16565b1561184d576117f26111c2565b73ffffffffffffffffffffffffffffffffffffffff168173ffffffffffffffffffffffffffffffffffffffff16837ff6391f5c32d9c69d2a47ea670b442974b53935d1edc7fd64eb21e047a839171b60405160405180910390a45b5050565b600073ffffffffffffffffffffffffffffffffffffffff168273ffffffffffffffffffffffffffffffffffffffff1614156118c1576040517f08c379a00000000000000000000000000000000000000000000000000000000081526004016118b890612bf9565b60405180910390fd5b6118cd60008383611dea565b6118e28160035461113d90919063ffffffff16565b60038190555061193a81600160008573ffffffffffffffffffffffffffffffffffffffff1673ffffffffffffffffffffffffffffffffffffffff1681526020019081526020016000205461113d90919063ffffffff16565b600160008473ffffffffffffffffffffffffffffffffffffffff1673ffffffffffffffffffffffffffffffffffffffff168152602001908152602001600020819055508173ffffffffffffffffffffffffffffffffffffffff16600073ffffffffffffffffffffffffffffffffffffffff167fddf252ad1be2c89b69c2b068fc378daa952ba7f163c4a11628f55a4df523b3ef836040516119db9190612c19565b60405180910390a35050565b3373ffffffffffffffffffffffffffffffffffffffff168273ffffffffffffffffffffffffffffffffffffffff1614611a5c5780600960006101000a81548173ffffffffffffffffffffffffffffffffffffffff021916908373ffffffffffffffffffffffffffffffffffffffff1602179055505b5050565b611af88282604051602401611a76929190612a29565b6040516020818303038152906040527fc3b55635000000000000000000000000000000000000000000000000000000007bffffffffffffffffffffffffffffffffffffffffffffffffffffffff19166020820180517bffffffffffffffffffffffffffffffffffffffffffffffffffffffff8381831617835250505050611e1f565b5050565b6000611b0b8360000183611e48565b60001c905092915050565b6000611b3e836000018373ffffffffffffffffffffffffffffffffffffffff1660001b611eb5565b905092915050565b600073ffffffffffffffffffffffffffffffffffffffff168273ffffffffffffffffffffffffffffffffffffffff161415611bb6576040517f08c379a0000000000000000000000000000000000000000000000000000000008152600401611bad90612b79565b60405180910390fd5b611bc282600083611dea565b611c2e81604051806060016040528060228152602001612dea60229139600160008673ffffffffffffffffffffffffffffffffffffffff1673ffffffffffffffffffffffffffffffffffffffff168152602001908152602001600020546116d49092919063ffffffff16565b600160008473ffffffffffffffffffffffffffffffffffffffff1673ffffffffffffffffffffffffffffffffffffffff16815260200190815260200160002081905550611c8681600354611ed890919063ffffffff16565b600381905550600073ffffffffffffffffffffffffffffffffffffffff168273ffffffffffffffffffffffffffffffffffffffff167fddf252ad1be2c89b69c2b068fc378daa952ba7f163c4a11628f55a4df523b3ef83604051611cea9190612c19565b60405180910390a35050565b600080600960009054906101000a900473ffffffffffffffffffffffffffffffffffffffff16905060008073ffffffffffffffffffffffffffffffffffffffff168273ffffffffffffffffffffffffffffffffffffffff1614611d595781611d5b565b335b9050809250505090565b6000611d7382600001611f28565b9050919050565b6000611d868383611eb5565b611ddf578260000182908060018154018082558091505060019003906000526020600020016000909190919091505582600001805490508360010160008481526020019081526020016000208190555060019050611de4565b600090505b92915050565b505050565b6000611e17836000018373ffffffffffffffffffffffffffffffffffffffff1660001b611f39565b905092915050565b60008151905060006a636f6e736f6c652e6c6f679050602083016000808483855afa5050505050565b600081836000018054905011611e93576040517f08c379a0000000000000000000000000000000000000000000000000000000008152600401611e8a90612a59565b60405180910390fd5b826000018281548110611ea257fe5b9060005260206000200154905092915050565b600080836001016000848152602001908152602001600020541415905092915050565b600082821115611f1d576040517f08c379a0000000000000000000000000000000000000000000000000000000008152600401611f1490612af9565b60405180910390fd5b818303905092915050565b600081600001805490509050919050565b600080836001016000848152602001908152602001600020549050600081146120155760006001820390506000600186600001805490500390506000866000018281548110611f8457fe5b9060005260206000200154905080876000018481548110611fa157fe5b9060005260206000200181905550600183018760010160008381526020019081526020016000208190555086600001805480611fd957fe5b6001900381819060005260206000200160009055905586600101600087815260200190815260200160002060009055600194505050505061201b565b60009150505b92915050565b60008135905061203081612d76565b92915050565b60008135905061204581612d8d565b92915050565b60008135905061205a81612da4565b92915050565b60006060828403121561207257600080fd5b81905092915050565b60008135905061208a81612dbb565b92915050565b60008135905061209f81612dd2565b92915050565b6000602082840312156120b757600080fd5b60006120c584828501612021565b91505092915050565b6000602082840312156120e057600080fd5b60006120ee84828501612036565b91505092915050565b6000806040838503121561210a57600080fd5b600061211885828601612021565b925050602061212985828601612021565b9150509250929050565b60008060006060848603121561214857600080fd5b600061215686828701612021565b935050602061216786828701612021565b92505060406121788682870161207b565b9150509250925092565b600080600080600060e0868803121561219a57600080fd5b60006121a888828901612021565b95505060206121b988828901612060565b94505060806121ca88828901612090565b93505060a06121db8882890161204b565b92505060c06121ec8882890161204b565b9150509295509295909350565b6000806040838503121561220c57600080fd5b600061221a85828601612021565b925050602061222b8582860161207b565b9150509250929050565b60006020828403121561224757600080fd5b60006122558482850161204b565b91505092915050565b6000806040838503121561227157600080fd5b600061227f8582860161204b565b925050602061229085828601612021565b9150509250929050565b600080604083850312156122ad57600080fd5b60006122bb8582860161204b565b92505060206122cc8582860161207b565b9150509250929050565b6122df81612c93565b82525050565b6122ee81612c81565b82525050565b6122fd81612ca5565b82525050565b61231461230f82612cb1565b612d51565b82525050565b61232381612cdd565b82525050565b61233a61233582612cdd565b612d5b565b82525050565b600061234b82612c4f565b6123558185612c65565b9350612365818560208601612d1e565b80840191505092915050565b600061237c82612c5a565b6123868185612c70565b9350612396818560208601612d1e565b61239f81612d65565b840191505092915050565b60006123b7602283612c70565b91507f456e756d657261626c655365743a20696e646578206f7574206f6620626f756e60008301527f64730000000000000000000000000000000000000000000000000000000000006020830152604082019050919050565b600061241d602383612c70565b91507f45524332303a207472616e7366657220746f20746865207a65726f206164647260008301527f65737300000000000000000000000000000000000000000000000000000000006020830152604082019050919050565b6000612483602f83612c70565b91507f416363657373436f6e74726f6c3a2073656e646572206d75737420626520616e60008301527f2061646d696e20746f206772616e7400000000000000000000000000000000006020830152604082019050919050565b60006124e9602283612c70565b91507f45524332303a20617070726f766520746f20746865207a65726f20616464726560008301527f73730000000000000000000000000000000000000000000000000000000000006020830152604082019050919050565b600061254f601b83612c70565b91507f536166654d6174683a206164646974696f6e206f766572666c6f7700000000006000830152602082019050919050565b600061258f601e83612c70565b91507f536166654d6174683a207375627472616374696f6e206f766572666c6f7700006000830152602082019050919050565b60006125cf603083612c70565b91507f416363657373436f6e74726f6c3a2073656e646572206d75737420626520616e60008301527f2061646d696e20746f207265766f6b65000000000000000000000000000000006020830152604082019050919050565b6000612635601a83612c70565b91507f4552524f523a20496e76616c6964207472616e73616374696f6e0000000000006000830152602082019050919050565b6000612675601683612c70565b91507f43616c6c6572206973206e6f742061206d696e746572000000000000000000006000830152602082019050919050565b60006126b5602183612c70565b91507f45524332303a206275726e2066726f6d20746865207a65726f2061646472657360008301527f73000000000000000000000000000000000000000000000000000000000000006020830152604082019050919050565b600061271b602583612c70565b91507f45524332303a207472616e736665722066726f6d20746865207a65726f20616460008301527f64726573730000000000000000000000000000000000000000000000000000006020830152604082019050919050565b6000612781602483612c70565b91507f45524332303a20617070726f76652066726f6d20746865207a65726f2061646460008301527f72657373000000000000000000000000000000000000000000000000000000006020830152604082019050919050565b60006127e7602f83612c70565b91507f416363657373436f6e74726f6c3a2063616e206f6e6c792072656e6f756e636560008301527f20726f6c657320666f722073656c6600000000000000000000000000000000006020830152604082019050919050565b600061284d601f83612c70565b91507f45524332303a206d696e7420746f20746865207a65726f2061646472657373006000830152602082019050919050565b61288981612d07565b82525050565b61289881612d11565b82525050565b60006128aa8287612303565b6001820191506128ba8286612303565b6001820191506128ca8285612329565b6020820191506128da8284612329565b60208201915081905095945050505050565b60006128f88284612340565b915081905092915050565b600060208201905061291860008301846122e5565b92915050565b600060408201905061293360008301856122d6565b6129406020830184612880565b9392505050565b600060208201905061295c60008301846122f4565b92915050565b6000602082019050612977600083018461231a565b92915050565b6000608082019050612992600083018761231a565b61299f60208301866122d6565b6129ac6040830185612880565b6129b96060830184612880565b95945050505050565b60006080820190506129d7600083018761231a565b6129e4602083018661288f565b6129f1604083018561231a565b6129fe606083018461231a565b95945050505050565b60006020820190508181036000830152612a218184612371565b905092915050565b60006040820190508181036000830152612a438185612371565b9050612a5260208301846122f4565b9392505050565b60006020820190508181036000830152612a72816123aa565b9050919050565b60006020820190508181036000830152612a9281612410565b9050919050565b60006020820190508181036000830152612ab281612476565b9050919050565b60006020820190508181036000830152612ad2816124dc565b9050919050565b60006020820190508181036000830152612af281612542565b9050919050565b60006020820190508181036000830152612b1281612582565b9050919050565b60006020820190508181036000830152612b32816125c2565b9050919050565b60006020820190508181036000830152612b5281612628565b9050919050565b60006020820190508181036000830152612b7281612668565b9050919050565b60006020820190508181036000830152612b92816126a8565b9050919050565b60006020820190508181036000830152612bb28161270e565b9050919050565b60006020820190508181036000830152612bd281612774565b9050919050565b60006020820190508181036000830152612bf2816127da565b9050919050565b60006020820190508181036000830152612c1281612840565b9050919050565b6000602082019050612c2e6000830184612880565b92915050565b6000602082019050612c49600083018461288f565b92915050565b600081519050919050565b600081519050919050565b600081905092915050565b600082825260208201905092915050565b6000612c8c82612ce7565b9050919050565b6000612c9e82612ce7565b9050919050565b60008115159050919050565b60007fff0000000000000000000000000000000000000000000000000000000000000082169050919050565b6000819050919050565b600073ffffffffffffffffffffffffffffffffffffffff82169050919050565b6000819050919050565b600060ff82169050919050565b60005b83811015612d3c578082015181840152602081019050612d21565b83811115612d4b576000848401525b50505050565b6000819050919050565b6000819050919050565b6000601f19601f8301169050919050565b612d7f81612c81565b8114612d8a57600080fd5b50565b612d9681612c93565b8114612da157600080fd5b50565b612dad81612cdd565b8114612db857600080fd5b50565b612dc481612d07565b8114612dcf57600080fd5b50565b612ddb81612d11565b8114612de657600080fd5b5056fe45524332303a206275726e20616d6f756e7420657863656564732062616c616e636545524332303a207472616e7366657220616d6f756e7420657863656564732062616c616e636545524332303a207472616e7366657220616d6f756e74206578636565647320616c6c6f77616e636545524332303a2064656372656173656420616c6c6f77616e63652062656c6f77207a65726fa264697066735822122028e9b565a0a4f6e8271260539a119ccc08d4c054ba86b676c005c03ca8b0097564736f6c63430007000033",
  "linkReferences": {},
  "deployedLinkReferences": {}
}